{
  "contractName": "FundMe",
  "abi": [
    {
      "inputs": [],
      "stateMutability": "nonpayable",
      "type": "constructor"
    },
    {
      "anonymous": false,
      "inputs": [
        {
          "indexed": false,
          "internalType": "address",
          "name": "sender",
          "type": "address"
        },
        {
          "indexed": false,
          "internalType": "uint256",
          "name": "amount",
          "type": "uint256"
        },
        {
          "indexed": false,
          "internalType": "uint256",
          "name": "balance",
          "type": "uint256"
        }
      ],
      "name": "Deposit",
      "type": "event"
    },
    {
      "anonymous": false,
      "inputs": [
        {
          "indexed": false,
          "internalType": "address",
          "name": "owner",
          "type": "address"
        },
        {
          "indexed": false,
          "internalType": "uint256",
          "name": "balance",
          "type": "uint256"
        }
      ],
      "name": "Liquidate",
      "type": "event"
    },
    {
      "anonymous": false,
      "inputs": [
        {
          "indexed": false,
          "internalType": "string",
          "name": "title",
          "type": "string"
        },
        {
          "indexed": false,
          "internalType": "string",
          "name": "body",
          "type": "string"
        },
        {
          "indexed": false,
          "internalType": "uint256",
          "name": "goal",
          "type": "uint256"
        },
        {
          "indexed": false,
          "internalType": "uint256",
          "name": "balance",
          "type": "uint256"
        }
      ],
      "name": "NewContract",
      "type": "event"
    },
    {
      "inputs": [
        {
          "internalType": "address",
          "name": "",
          "type": "address"
        }
      ],
      "name": "funds",
      "outputs": [
        {
          "internalType": "string",
          "name": "title",
          "type": "string"
        },
        {
          "internalType": "string",
          "name": "body",
          "type": "string"
        },
        {
          "internalType": "uint256",
          "name": "goal",
          "type": "uint256"
        },
        {
          "internalType": "uint256",
          "name": "balance",
          "type": "uint256"
        },
        {
          "internalType": "address",
          "name": "owner",
          "type": "address"
        }
      ],
      "stateMutability": "view",
      "type": "function"
    },
    {
      "inputs": [
        {
          "internalType": "string",
          "name": "_title",
          "type": "string"
        },
        {
          "internalType": "string",
          "name": "_body",
          "type": "string"
        },
        {
          "internalType": "uint256",
          "name": "_goal",
          "type": "uint256"
        }
      ],
      "name": "createNewFund",
      "outputs": [],
      "stateMutability": "nonpayable",
      "type": "function"
    },
    {
      "inputs": [
        {
          "internalType": "address",
          "name": "_accountToFund",
          "type": "address"
        }
      ],
      "name": "contributeToFund",
      "outputs": [],
      "stateMutability": "payable",
      "type": "function"
    },
    {
      "inputs": [],
      "name": "liquidateYourFund",
      "outputs": [],
      "stateMutability": "nonpayable",
      "type": "function"
    }
  ],
  "bytecode": "0x608060405234801561001057600080fd5b5033600160006101000a81548173ffffffffffffffffffffffffffffffffffffffff021916908373ffffffffffffffffffffffffffffffffffffffff1602179055506112d9806100616000396000f3fe60806040526004361061003f5760003560e01c80630ba7d38914610044578063ad304ae314610060578063c0de972314610089578063e2ae93fb146100a0575b600080fd5b61005e60048036038101906100599190610a62565b6100e1565b005b34801561006c57600080fd5b5061008760048036038101906100829190610c0b565b610289565b005b34801561009557600080fd5b5061009e610578565b005b3480156100ac57600080fd5b506100c760048036038101906100c29190610a62565b6107a7565b6040516100d8959493929190610d3c565b60405180910390f35b600073ffffffffffffffffffffffffffffffffffffffff166000808373ffffffffffffffffffffffffffffffffffffffff1673ffffffffffffffffffffffffffffffffffffffff16815260200190815260200160002060040160009054906101000a900473ffffffffffffffffffffffffffffffffffffffff1673ffffffffffffffffffffffffffffffffffffffff1614156101b2576040517f08c379a00000000000000000000000000000000000000000000000000000000081526004016101a990610e35565b60405180910390fd5b346000808373ffffffffffffffffffffffffffffffffffffffff1673ffffffffffffffffffffffffffffffffffffffff16815260200190815260200160002060030160008282546102039190610e84565b925050819055507f90890809c654f11d6e72a28fa60149770a0d11ec6c92319d6ceb2bb0a4ea1a1533346000808573ffffffffffffffffffffffffffffffffffffffff1673ffffffffffffffffffffffffffffffffffffffff1681526020019081526020016000206003015460405161027e93929190610eda565b60405180910390a150565b600073ffffffffffffffffffffffffffffffffffffffff166000803373ffffffffffffffffffffffffffffffffffffffff1673ffffffffffffffffffffffffffffffffffffffff16815260200190815260200160002060040160009054906101000a900473ffffffffffffffffffffffffffffffffffffffff1673ffffffffffffffffffffffffffffffffffffffff1614610359576040517f08c379a000000000000000000000000000000000000000000000000000000000815260040161035090610f83565b60405180910390fd5b600081141561039d576040517f08c379a000000000000000000000000000000000000000000000000000000000815260040161039490611015565b60405180910390fd5b60008060003373ffffffffffffffffffffffffffffffffffffffff1673ffffffffffffffffffffffffffffffffffffffff1681526020019081526020016000206002015414610421576040517f08c379a0000000000000000000000000000000000000000000000000000000008152600401610418906110a7565b60405180910390fd5b6040518060a00160405280848152602001838152602001828152602001600081526020013373ffffffffffffffffffffffffffffffffffffffff168152506000803373ffffffffffffffffffffffffffffffffffffffff1673ffffffffffffffffffffffffffffffffffffffff16815260200190815260200160002060008201518160000190805190602001906104b992919061090d565b5060208201518160010190805190602001906104d692919061090d565b50604082015181600201556060820151816003015560808201518160040160006101000a81548173ffffffffffffffffffffffffffffffffffffffff021916908373ffffffffffffffffffffffffffffffffffffffff1602179055509050507fbf43154e7ff571032900e851cfc6a33fa9974874b24de47032b3fd827b167a80838383600060405161056b949392919061110c565b60405180910390a1505050565b60008060003373ffffffffffffffffffffffffffffffffffffffff1673ffffffffffffffffffffffffffffffffffffffff16815260200190815260200160002060030154905060006064826105cd919061118e565b905060006063826105de91906111bf565b9050600160009054906101000a900473ffffffffffffffffffffffffffffffffffffffff1673ffffffffffffffffffffffffffffffffffffffff166108fc839081150290604051600060405180830381858888f19350505050158015610648573d6000803e3d6000fd5b503373ffffffffffffffffffffffffffffffffffffffff166108fc829081150290604051600060405180830381858888f1935050505015801561068f573d6000803e3d6000fd5b507f08813a3631e12129135cc9440d3fea50eec346f1673b20b994b0456d5d46ccb9336000803373ffffffffffffffffffffffffffffffffffffffff1673ffffffffffffffffffffffffffffffffffffffff16815260200190815260200160002060030154604051610702929190611219565b60405180910390a16000803373ffffffffffffffffffffffffffffffffffffffff1673ffffffffffffffffffffffffffffffffffffffff168152602001908152602001600020600080820160006107599190610993565b6001820160006107699190610993565b600282016000905560038201600090556004820160006101000a81549073ffffffffffffffffffffffffffffffffffffffff02191690555050505050565b60006020528060005260406000206000915090508060000180546107ca90611271565b80601f01602080910402602001604051908101604052809291908181526020018280546107f690611271565b80156108435780601f1061081857610100808354040283529160200191610843565b820191906000526020600020905b81548152906001019060200180831161082657829003601f168201915b50505050509080600101805461085890611271565b80601f016020809104026020016040519081016040528092919081815260200182805461088490611271565b80156108d15780601f106108a6576101008083540402835291602001916108d1565b820191906000526020600020905b8154815290600101906020018083116108b457829003601f168201915b5050505050908060020154908060030154908060040160009054906101000a900473ffffffffffffffffffffffffffffffffffffffff16905085565b82805461091990611271565b90600052602060002090601f01602090048101928261093b5760008555610982565b82601f1061095457805160ff1916838001178555610982565b82800160010185558215610982579182015b82811115610981578251825591602001919060010190610966565b5b50905061098f91906109d3565b5090565b50805461099f90611271565b6000825580601f106109b157506109d0565b601f0160209004906000526020600020908101906109cf91906109d3565b5b50565b5b808211156109ec5760008160009055506001016109d4565b5090565b6000604051905090565b600080fd5b600080fd5b600073ffffffffffffffffffffffffffffffffffffffff82169050919050565b6000610a2f82610a04565b9050919050565b610a3f81610a24565b8114610a4a57600080fd5b50565b600081359050610a5c81610a36565b92915050565b600060208284031215610a7857610a776109fa565b5b6000610a8684828501610a4d565b91505092915050565b600080fd5b600080fd5b6000601f19601f8301169050919050565b7f4e487b7100000000000000000000000000000000000000000000000000000000600052604160045260246000fd5b610ae282610a99565b810181811067ffffffffffffffff82111715610b0157610b00610aaa565b5b80604052505050565b6000610b146109f0565b9050610b208282610ad9565b919050565b600067ffffffffffffffff821115610b4057610b3f610aaa565b5b610b4982610a99565b9050602081019050919050565b82818337600083830152505050565b6000610b78610b7384610b25565b610b0a565b905082815260208101848484011115610b9457610b93610a94565b5b610b9f848285610b56565b509392505050565b600082601f830112610bbc57610bbb610a8f565b5b8135610bcc848260208601610b65565b91505092915050565b6000819050919050565b610be881610bd5565b8114610bf357600080fd5b50565b600081359050610c0581610bdf565b92915050565b600080600060608486031215610c2457610c236109fa565b5b600084013567ffffffffffffffff811115610c4257610c416109ff565b5b610c4e86828701610ba7565b935050602084013567ffffffffffffffff811115610c6f57610c6e6109ff565b5b610c7b86828701610ba7565b9250506040610c8c86828701610bf6565b9150509250925092565b600081519050919050565b600082825260208201905092915050565b60005b83811015610cd0578082015181840152602081019050610cb5565b83811115610cdf576000848401525b50505050565b6000610cf082610c96565b610cfa8185610ca1565b9350610d0a818560208601610cb2565b610d1381610a99565b840191505092915050565b610d2781610bd5565b82525050565b610d3681610a24565b82525050565b600060a0820190508181036000830152610d568188610ce5565b90508181036020830152610d6a8187610ce5565b9050610d796040830186610d1e565b610d866060830185610d1e565b610d936080830184610d2d565b9695505050505050565b7f54686520746865206163636f756e7420796f75207769736820746f20646f6e6160008201527f746520746f20686173206e6f2066756e6420617474616368656420746f20746860208201527f656972206163636f756e74000000000000000000000000000000000000000000604082015250565b6000610e1f604b83610ca1565b9150610e2a82610d9d565b606082019050919050565b60006020820190508181036000830152610e4e81610e12565b9050919050565b7f4e487b7100000000000000000000000000000000000000000000000000000000600052601160045260246000fd5b6000610e8f82610bd5565b9150610e9a83610bd5565b9250827fffffffffffffffffffffffffffffffffffffffffffffffffffffffffffffffff03821115610ecf57610ece610e55565b5b828201905092915050565b6000606082019050610eef6000830186610d2d565b610efc6020830185610d1e565b610f096040830184610d1e565b949350505050565b7f4d757374206e6f7420616c7265616479206861766520612066756e64206f706560008201527f6e206f6e20796f7572206163636f756e74000000000000000000000000000000602082015250565b6000610f6d603183610ca1565b9150610f7882610f11565b604082019050919050565b60006020820190508181036000830152610f9c81610f60565b9050919050565b7f4d75737420737065636966792061206d696e696d756d20676f616c20616d6f7560008201527f6e74206f662066756e6473000000000000000000000000000000000000000000602082015250565b6000610fff602b83610ca1565b915061100a82610fa3565b604082019050919050565b6000602082019050818103600083015261102e81610ff2565b9050919050565b7f416c7265616479206372656174656420612066756e6420756e6465722074686960008201527f73206163636f756e740000000000000000000000000000000000000000000000602082015250565b6000611091602983610ca1565b915061109c82611035565b604082019050919050565b600060208201905081810360008301526110c081611084565b9050919050565b6000819050919050565b6000819050919050565b60006110f66110f16110ec846110c7565b6110d1565b610bd5565b9050919050565b611106816110db565b82525050565b600060808201905081810360008301526111268187610ce5565b9050818103602083015261113a8186610ce5565b90506111496040830185610d1e565b61115660608301846110fd565b95945050505050565b7f4e487b7100000000000000000000000000000000000000000000000000000000600052601260045260246000fd5b600061119982610bd5565b91506111a483610bd5565b9250826111b4576111b361115f565b5b828204905092915050565b60006111ca82610bd5565b91506111d583610bd5565b9250817fffffffffffffffffffffffffffffffffffffffffffffffffffffffffffffffff048311821515161561120e5761120d610e55565b5b828202905092915050565b600060408201905061122e6000830185610d2d565b61123b6020830184610d1e565b9392505050565b7f4e487b7100000000000000000000000000000000000000000000000000000000600052602260045260246000fd5b6000600282049050600182168061128957607f821691505b6020821081141561129d5761129c611242565b5b5091905056fea2646970667358221220a75a39876ed56a139a7f0700638601e958dc93af22a71149e7f2ebb84f309b4864736f6c634300080a0033",
  "immutableReferences": {},
  "source": "// SPDX-License-Identifier: MIT\npragma solidity >=0.5.0 <0.9.0;\n\ncontract FundMe {\n\n    event NewContract(string title, string body, uint goal, uint balance);\n    event Deposit(address sender, uint amount, uint balance);\n    event Liquidate(address owner, uint balance);\n\n    struct Fund {\n        string title;\n        string body;\n        uint goal;\n        uint balance;\n        address owner;\n    }\n\n    mapping(address => Fund) public funds;\n\n    address owner;\n\n    constructor() {\n        owner = msg.sender;\n    }\n\n    function createNewFund(string memory _title, string memory _body, uint _goal) public {\n        require(funds[msg.sender].owner == address(0), \"Must not already have a fund open on your account\");\n        require(_goal != 0, \"Must specify a minimum goal amount of funds\");\n        require(funds[msg.sender].goal == 0, \"Already created a fund under this account\");\n        funds[msg.sender] = Fund(_title, _body, _goal, 0, msg.sender);\n        emit NewContract(_title, _body, _goal, 0);\n    }\n\n    function contributeToFund(address _accountToFund) public payable {\n        require(funds[_accountToFund].owner != address(0), \"The the account you wish to donate to has no fund attached to their account\");\n        funds[_accountToFund].balance += msg.value;\n        emit Deposit(msg.sender, msg.value, funds[_accountToFund].balance);\n    }\n\n    function liquidateYourFund() public {\n        uint balance = funds[msg.sender].balance;\n        uint fee = balance/100;\n        uint payOut = fee*99;\n        payable(owner).transfer(fee);\n        payable(msg.sender).transfer(payOut);\n        emit Liquidate(msg.sender, funds[msg.sender].balance);\n        delete funds[msg.sender];\n    }\n\n}",
  "sourcePath": "/Users/joycafiero/Desktop/blockchainProj/firstBCProj/contracts/FundMe.sol",
  "compiler": {
    "name": "solc",
    "version": "0.8.10+commit.fc410830.Emscripten.clang"
  },
  "schemaVersion": "3.4.4",
  "updatedAt": "2022-01-02T22:35:11.648Z",
  "devdoc": {
    "kind": "dev",
    "methods": {},
    "version": 1
  },
  "userdoc": {
    "kind": "user",
    "methods": {},
    "version": 1
  }
}